:100000000080001099100000C9100000CB10000003
:10001000CD100000CF100000D11000000000000043
:10002000000000000000000000000000D3100000ED
:10003000D510000000000000D7100000D91000000B
:10004000DB100000DB100000DB100000DB10000004
:10005000DB100000DB100000DB100000DB100000F4
:10006000DB100000DB100000DB100000DB100000E4
:10007000DB100000DB100000DB100000DB100000D4
:10008000DB100000DB100000DB100000DB100000C4
:10009000DB100000DB100000DB100000DB100000B4
:1000A000DB100000DB100000DB100000DB100000A4
:1000B000DB100000DB100000DB100000DB10000094
:1000C000DB100000DB100000DB10000010B5054C59
:1000D000237833B9044B13B10448AFF300800123F4
:1000E000237010BD88010010000000005CB100000A
:1000F000084B10B51BB108480849AFF30080084809
:10010000036803B910BD074B002BFBD0BDE81040BE
:10011000184700BF000000005CB100008C01001017
:100120008801001000000000154B002B08BF134B86
:100130009D46A3F5803A00218B460F461348144A8A
:10014000121A04F04CFF0F4B002B00D098470E4BB7
:10015000002B00D098470020002104000D000D481E
:10016000002802D00C48AFF3008004F09DFE200070
:10017000290001F047F904F065FB00BF000008000A
:100180000080001000000000000000008801001046
:10019000281E001000000000000000000000000009
:1001A0002DE9F843064648680C4609F0D5FD80461F
:1001B0002068894609F0D0FD02460B464046494674
:1001C00002F062FE18A3D3E9002309F02BFE0AF027
:1001D000C3F8051E94E8810000FB00F0B8BF05F5E8
:1001E000B47509F0B9FD804607FB07F0894609F0B0
:1001F000B3FD02460B464046494609F061FC02F059
:1002000045FE02F069FD00224FF0804309F056FCE4
:100210000AF0A2F829460346A268304600F045F8E5
:100220003046BDE8F88300BFF6285C8FC2A54C407D
:10023000002103224FF0040C80E80610704710B52F
:1002400080E80E0010BD83680133836070478368C7
:10025000013B836070474368013B436070474368DC
:1002600001334360704703680133036070470368DC
:10027000013B036070475A22026204224262082254
:1002800082626FF00501AE224FF02C0C80E8061060
:10029000E422C2605C22026140F2131242619122A8
:1002A000826140F24312C26170470162426283621E
:1002B0006FF00501AE222C234FF0E40C80E80E1005
:1002C0005C23036140F2131343619123836140F285
:1002D000431310B5C36110BD436A026A50F823305E
:1002E00013444FF4B47293FBF2F002FB10307047EA
:1002F000026A4FF4B47392FBF3F003FB10207047D3
:10030000436A01209840C0B27047806A7047436AD0
:10031000062BDCBF013343627047436A002BC4BF26
:1003200003F1FF3343627047036A4FF4B471013342
:1003300093FBF1F201FB123303627047036A4FF43F
:10034000B471013B93FBF1F201FB1233036270477E
:10035000836A002BC4BF03F1FF3383627047836A53
:100360000E2BDCBF01338362704710B580E80E00AE
:10037000029BC360039B036110BD002202604260C8
:100380008260C26002617047036801330360704796
:100390000368013B036070474368013B436070475B
:1003A0004368013343607047436809B1C26800E0A5
:1003B00002691360704738B504460D4618220021C3
:1003C00004F00DFE2046294601F0E8FF204638BD26
:1003D00000F5B45300221A6070470000F8B50C46CF
:1003E00001F10805082629783F4801F00101FFF7CF
:1003F000DBFF29783D4801F00201FFF7D5FF29789E
:100400003B4801F00401FFF7CFFF2978394801F09C
:100410000801FFF7C9FF2978374801F01001FFF7FD
:10042000C3FF2978354801F02001FFF7BDFF297887
:10043000334801F04001FFF7B7FF15F8011B3148C1
:1004400001F08001FFF7B0FF2F4B0136DA685968E1
:10045000102E116059681A691F461160C3D1073404
:1004600007252178204801F00101FFF79DFF217841
:100470001E4801F00201FFF797FF21781C4801F0A8
:100480000401FFF791FF21781A4801F00801FFF7F6
:100490008BFF2178184801F01001FFF785FF2178C4
:1004A000164801F02001FFF77FFF2178144801F082
:1004B0004001FFF779FF14F80119124801F080019B
:1004C000FFF772FFFB687A6815F1FF351A607A68EA
:1004D0003B691A60C5D20D4BDA68596811601A6918
:1004E0005B681360F8BD00BF1C020010D40100104F
:1004F0004C0200107C020010640200103402001054
:10050000A401001004020010EC010010BC01001056
:1005100010B500F5B4542168B1F5B47F06DA00EBEC
:100520000111FFF75BFF23680133236010BD00F565
:10053000B45000230360704700F5B452002300213B
:10054000C1540133102BFAD110309042F6D17047CC
:100550000F2A07D8B1F5B47F3FBF02EB0112815CCF
:100560000B438354704784B0F8B507AC0746204668
:1005700084E80E00FFF7B0FE06462046FFF7C0FEF7
:1005800005462046FFF7C1FE314602462B46384657
:10059000FFF7DEFFBDE8F84004B0704770B590B0DB
:1005A00001AC84E80E000646214605A8FFF7F8FDD9
:1005B00005A8FFF791FE054605A8FFF7A1FE044632
:1005C00005A8FFF7A2FE2946024623463046FFF75C
:1005D000BFFF10B070BD00002DE9F0470846164679
:1005E0009A4609F0B9FB044630460D4609F0B4FBC3
:1005F0001BA3D3E9002309F03FFD06460F4602F096
:10060000F9FB02460B462046294609F00BFC02F096
:1006100063FB80468946089809F09EFB42464B469C
:1006200009F068FEC8B13046394602F00DFB0246BB
:100630000B462046294609F0F5FB02F04DFB064625
:100640000F46504609F088FB32463B464FF0010406
:1006500009F050FE00B90446E0B2BDE8F08700BFE3
:10066000AEB6627FD9A54C402DE9F04F95B005ACF0
:1006700084E80E00069B0546894609A82146039397
:10068000FFF78EFD09A8FFF727FE074609A8FFF729
:1006900037FE804609A8FFF738FE06463946284649
:1006A00032464346FFF754FF09A8FFF721FE834671
:1006B0000024039B06F1020A00932846514604EBEE
:1006C0000B024B46FFF788FF78B10F2C0DD0E219D3
:1006D0004FF4B47392FBF3F1284603FB1121324629
:1006E0004346FFF735FF0134E3E709A8FFF700FEB3
:1006F000A3460490049B28461A1B039B5146009373
:100700005A444B46FFF768FF90B11BF10F0F0FD013
:100710000BEB07024FF4B47392FBF3F1284603FB93
:10072000112132464346FFF713FF0BF1FF3BE1E790
:1007300015B0BDE8F08F2DE9F04F06468946924688
:100740001F4685B000250E9B9D4236DA01AC05EBB5
:10075000090B594652463B462046FFF770FD94E888
:100760000E0005EB0A083046FFF718FF49464246DF
:100770003B462046FFF763FD94E80E003046FFF746
:100780000DFF0E9B424609EB030120463B46FFF757
:1007900056FD94E80E003046FFF700FF0E9B5946C9
:1007A0000AEB030220463B46FFF749FD94E80E00A2
:1007B0003046FFF7F3FE0135C5E705B0BDE8F08F21
:1007C0002DE9FF470746884691469A460C9E00242D
:1007D000B4420EDA01AD04EB0A0341464A4628460C
:1007E000FFF72DFD95E80E003846FFF7D7FE0134E0
:1007F000EEE704B0BDE8F08784B02DE9F347064684
:1008000088460BAC84E80E000D9DDDF830900E9C00
:100810000F9F00944A462B46FFF78DFF0094304609
:1008200041464A46EB19FFF786FF08EB040A3046BB
:1008300041464A462B460097FFF7C2FF4C443046DC
:1008400051464A462B460097FFF7BAFF30464146CD
:1008500022462B460097FFF7B3FF3046514622460B
:100860002B460E9702B0BDE8F04704B0FFF7A8BFD3
:1008700008B514491448FFF79EFD14491448FFF7C2
:100880009AFD14491448FFF796FD14491448FFF7E0
:1008900092FD14491448FFF78EFD14491448FFF7E0
:1008A0008AFD14491448FFF786FD14491448FFF7E0
:1008B00082FD14491448FFF77EFD14491448FFF7E0
:1008C0007AFD08BD42C00920BC01001043C00920C8
:1008D000EC01001017C009201C02001018C00920EC
:1008E000D401001019C009204C0200101AC00920C0
:1008F0007C0200103EC00920640200103FC00920A5
:100900003402001045C00920A401001044C0092091
:100910000402001070474A680B6812F0010F4FEA9A
:10092000620218BF8158104418BFCB581847000006
:1009300010B50446064B403003F1180240F8403C25
:100940004C330260436001F0E3FB204610BD00BF62
:10095000F8A80000A0F14000FFF7EABFA0F14400B2
:10096000FFF7E6BF10B5044602F06BF9204610BD54
:1009700010B50446044B036001F044FC204601F02E
:1009800097FC204610BD00BFA8A90000F8B51F4E77
:100990001F4C357855B11F4801F07AFC1D4801F015
:1009A00061FC00233370B4232360F8BD2368A4F5F1
:1009B000B456592B29DD174801F060FC09F0CCF939
:1009C000154F164CC7E90001124801F061FC1148AF
:1009D00001F048FCD7E90001114B002209F04CFB63
:1009E000C4E900013046FFF7A2FDD4E9000109F097
:1009F000DBFC0C4B01460C48C3610C4B8661056265
:100A0000C362BDE8F84001F005BCF8BD5403001016
:100A1000E819001058030010F0190010501B0010C6
:100A200000807640110500009402001017090000B4
:100A300010B50446FFF79CFF204602F002F920465D
:100A400010BD000037B5334D334C2846FFF774FD19
:100A500004F10C0393E803008DE80300284694E8B2
:100A60000E00FFF7C9FE04F1200393E803008DE8B0
:100A7000030004F114030ECB2846FFF7BDFE04F17A
:100A8000340393E803008DE8030004F128030ECB40
:100A90002846FFF7B1FE04F1480393E803008DE810
:100AA000030004F13C030ECB2846FFF7A5FE04F13A
:100AB0005C0393E803008DE8030004F150030ECBC0
:100AC0002846FFF799FE04F1700393E803008DE8D0
:100AD000030004F164030ECB2846FFF78DFE04F1FA
:100AE000840393E803008DE8030004F178030ECB40
:100AF0002846FFF781FE04F1980393E803008DE890
:100B000003008C3494E80E002846FFF775FE03B00E
:100B100030BD00BF68030010541A001070B56C2877
:100B200088B01ED007D8612817D064282BD1174869
:100B3000FFF704FC18E073280BD0772805D0702845
:100B400021D11248FFF7E3FB0EE01048FFF707FC46
:100B50000AE00E48FFF7FCFB06E00C48FFF7E4FB59
:100B600002E00A48FFF7D9FB6C46084E06F10C0577
:100B70000FCD0FC495E80F0084E80F0096E80E0033
:100B80000348FFF7F0FC08B070BD00BFC4020010BE
:100B900068030010642810B526D002D861281AD046
:100BA00010BD732802D077280CD010BD0024134844
:100BB00020441434FFF7F0FBA02CF8D1BDE810401E
:100BC000FFF740BF00240D4820441434FFF7E8FB32
:100BD000A02CF8D1F2E70024084820441434FFF791
:100BE000D7FBA02CF8D1E9E70024044820441434B2
:100BF000FFF7CAFBA02CF8D1E0E700BF541A0010A1
:100C00006C2810B51FD004D8612814D0642816D0E1
:100C100010BD73280BD0772805D070281DD10F4840
:100C2000FFF711FB12E00D48FFF719FB0EE00B4830
:100C3000FFF711FB0AE00948FFF719FB06E0074838
:100C4000FFF711FB02E00548FFF701FBBDE810408C
:100C5000024B03480ECBFFF707BD10BD4803001041
:100C6000680300106D2838B505461B4C20D11B4881
:100C7000FFF762FC2378012B08D002D3022B0DD0A2
:100C800038BD022323701648164903E00023144898
:100C900015492370BDE8384001F08ABA0123104895
:100CA0001249237001F084FABDE83840FFF7CABE4C
:100CB00023780BB9FFF732FF2378012B02D12846A6
:100CC000FFF768FF2378022B04D12846BDE838409F
:100CD000FFF796BF38BD00BF501A00106803001020
:100CE00030030010A0A40000B9A40000D0A40000AC
:100CF0002DE9F047042788B04FF006095A4C03212C
:100D00003A4600238DE8800203A803AEFFF72DFBCF
:100D10000FCE0FC4254633684FF0030A6FF003016E
:100D200045F8043B0A46CDF804A00123009703A828
:100D3000FFF71BFB0DF10C0EBEE80F000FC533686B
:100D40004FF005082B6041466FF006020223CDF8F4
:100D50000080019703A8FFF708FB04F118050DF1C7
:100D60000C0EBEE80F000FC533686FF004012B6056
:100D7000CDF800A04FF0070A42460023CDF804A0AA
:100D800003A8FFF7F2FA04F12C050DF10C0EBEE8F2
:100D90000F000FC533680F212B60082201238DE857
:100DA000800203A8FFF7E1FA04F140050DF10C0EF3
:100DB000BEE80F000FC533680F212B606FF00302F0
:100DC00000238DE8000503A8FFF7CFFA04F15405CE
:100DD0000DF10C0EBEE80F000FC5336816212B6015
:100DE0006FF006020223CDF80090019703A8FFF7E9
:100DF000BCFA04F168050DF10C0EBEE80F000FC53A
:100E0000336815212B604246022304F17C050097CC
:100E1000019703A803ACFFF7A8FA0FCC0FC53368FE
:100E2000124913482B6001F0C3F91249124801F02E
:100E3000BFF9124A01231370114A12481370124B62
:100E400064221A60FFF778FB1048114901F0B2F8EC
:100E5000104801F013F90028FAD0074801F09EF974
:100E6000C0B2FFF7FFFEF3E7541A0010EAA4000037
:100E7000381A0010E0A4000030030010501A0010CF
:100E80005403001068030010EC190010F41A00104D
:100E90008D090000F002001010B50446FFF748FD70
:100EA000204601F0CEFE204610BDA0F14000F3E741
:100EB000A0F14400F0E7000038B52149214801F0D5
:100EC00057F8214D2149224A1E4801F0B5FE21481C
:100ED00001F0B8F9284601F007FA1F4B1F491C4AD8
:100EE000002428462B60AC61EC6201F0A5FE1C4892
:100EF000FFF7C1F91B48FFF79BF91B48FFF768FA9A
:100F00001A4820441434FFF738FAA02CF8D10023F3
:100F10001749184A184801F067F818490C4A16484A
:100F200001F08AFE1649174A0023174801F05CF8C1
:100F3000BDE8384014481149054A01F07DBE00BFA4
:100F400041C00920F41A001094020010F91E00009C
:100F5000C800001058030010A8A900007109000083
:100F6000C40200104803001068030010541A001057
:100F700002C0092003C00920F8190010310900003F
:100F800000C0092001C00920F002001000B599B08E
:100F900072B63B49684601F001FA06A8394901F0EA
:100FA000FDF90CA8384901F0F9F912A8374901F008
:100FB000F5F932E00699039B019A01311A6059D084
:100FC0000C990A9B079A01311A604DD01299109B17
:100FD0000D9A01311A6041D0159B139A96201A6020
:100FE00001F02AFB009B013332D00699049B019A41
:100FF00001311A6026D00C99099B079A01311A60B9
:101000001AD012990F9B0D9A01311A600ED0169BBF
:10101000139A96201A6001F00FFB009B0133C9D18F
:101020001B481C49242201F07FF9C3E718481949DD
:10103000242201F079F9EAE715481649242201F043
:1010400073F9DEE712481349242201F06DF9D2E763
:101050000F481049242201F067F9C6E70C480D49F2
:10106000242201F061F9B7E709480A49242201F076
:101070005BF9ABE706480749242201F055F99FE7E1
:1010800032C0092034C0092035C0092037C00920EA
:10109000F4A400000CA500000649074A074B9A4239
:1010A000BEBF51F8040B42F8040BF8E70448804730
:1010B0000448004790B10000C800001088010010EB
:1010C0007D14000029010000FEE7FEE7FEE7FEE7D1
:1010D000FEE7FEE7FEE7FEE7FEE7FEE70C4A30B478
:1010E000936894681A46B4F1805F0CD2094A03F100
:1010F000C40553F8044BAB4242F8044FF9D1044BFA
:101100004FF080529A60103042F8201030BC704787
:1011100000ED00E0FCFFFF0F036870B51B690021C4
:10112000012204469847431C05460ED023682046FA
:101130001B690021022298472368064629461B693D
:10114000204600229847304670BD70BD084A094BC2
:1011500010B4026003F58071002453F8042B82421E
:1011600008BF43F8044C8B42F7D15DF8044B70473D
:1011700098A50000581B00100A4A0B4B10B503F548
:10118000807104460260002053F8042B944208BF8B
:1011900043F8040C8B42F7D1204601F052FD204663
:1011A00010BD00BF98A50000581B0010024803495D
:1011B000034A00F06BBD00BF1C1E001002C00920D6
:1011C00003C00920F0B50E4685B03549054605F047
:1011D000C0FA20B9334B1B6863B105B0F0BD284697
:1011E000314905F0B6FA78B92E4B1B6843B101209E
:1011F00005B0F0BD0190FFF7D9FF019805B0F0BD33
:10120000FFF7D4FF0120E8E72846284905F0A1FAB6
:1012100010B3274B002402E00134402C21D053F8B6
:10122000040F0028F8D12B783A2B32D0294602A897
:1012300000F00AFE02A800F059FE90B102A800F0EA
:101240003DFE88B102A800F043FE03464BB1194AA7
:10125000E01C42F82430C0E7124B1B68ABB10220FF
:10126000BBE74FF0FF30B8E702A800F01BFE0546D1
:101270000028F6D0036802A89F6800F011FE3246ED
:1012800001462846B8470346E0E7FFF78FFF0220F4
:10129000A3E72846084902AA05F0ECF9029BD5E726
:1012A00074A50000581C001084A500007CA5000057
:1012B000541B0010581B0010C0A50000022808B5E0
:1012C0000BDD084BC21E53F82200002143F8221008
:1012D00028B103685B68984708BD002008BD4FF03F
:1012E000FF3008BD581B0010022870B50C4616468A
:1012F0000FDC0E4B1B680BB9FFF758FFA51936B171
:1013000014F8011B0A4800F011FCAC42F8D1304639
:1013100070BD084B033853F8200018B103681B68F0
:10132000984770BD4FF0FF3070BD00BF581C0010D3
:101330001C1E0010581B0010022810B50C4609DCBA
:101340000D4B1B688BB10D4800F094FB01232070FE
:10135000184610BD0A4B033853F8200040B103680B
:101360009B6898470346184610BDFFF71FFFEAE742
:101370004FF0FF33ECE700BF581C00101C1E00109C
:10138000581B0010022808B508DD074B033853F836
:10139000200028B10368DB68984708BD012008BD1C
:1013A0004FF0FF3008BD00BF581B0010022808B5E1
:1013B00008DD074B033853F8200028B103681B6988
:1013C000984708BD002008BD4FF0FF3008BD00BFA2
:1013D000581B0010022808B504D84FF400534B6086
:1013E000002008BD03F028FA092303604FF0FF3006
:1013F00008BD00BF08B5012003F024FA704700BF04
:10140000704700BF08B5FFF7FBFFFFF7F7FFBDE828
:101410000840FFF76DBC00BF074A13681844EFF39C
:101420000881884202D2106018467047034B0C2294
:101430001A604FF0FF307047CC000010241E0010DF
:101440000A4C08B523680546986803F017FB236823
:10145000D86803F013FB00F0EDFF20B905B9FEE7F3
:10146000FFF794FDFBE701F041F8F7E738010010C2
:10147000002105F046B800BF03F03EBB2B4A2023F5
:1014800070B4C2F8A031D2F8A031980645D4274BE9
:10149000022100250124AA2055220B26C3F804119D
:1014A000C3F8A8511946C3F8AC51C3F80C41C3F8AE
:1014B0008460C3F88C00C3F88C20C3F88040C3F864
:1014C0008C00C3F88C20D1F88830184A5B01FAD51B
:1014D0000321AA205523C2F88010C2F88C001146BF
:1014E000C2F88C30D1F88830104A13F0407FF9D020
:1014F0000F4900230520C2F80801C2F8C410C2F841
:10150000C831136870BC23F4704323F03A0343F4EA
:10151000405343F03A0313607047D2F8A0315906A4
:10152000B5D4D2F8A0315906F7D5B0E700C00F40C6
:10153000DE87280408B5154A9368C3F34203012BDC
:101540001ED0022B19D1124B596F01310AD0D3F89A
:101550008010986F086093F8A61019B9516821F0AF
:1015600001015160186F0A4B48B193F8A6302BB1B6
:101570000021084A1368984708BD08BD08BD08BD8A
:10158000034A106F0028F9D01946F2E7008009409D
:10159000601C00105C1C001070B50368294CA3424D
:1015A00049D041DD284CA3422AD004F58044A3420F
:1015B00044D1264C08263ABB01290BD04568244A61
:1015C000C5EBC50502EBC50494F8355094F83620F8
:1015D000EA4214D1012202FA01F5D1F1010138BF2A
:1015E000002102FA01F15C6824EA05045C600368EA
:1015F0005B68194203D1B240164BC3F8802070BD1E
:10160000154C0726002AD7D0012505FA01F176B23C
:10161000304605FA06F65A680A435A602146FFF733
:101620005DFD0C4B1E6070BDA4F58044A34205D146
:101630000A4C0526BFE70A4C0626BCE700242646CE
:10164000B9E700BF0000014000800940C916000052
:10165000601C001000E100E0351500006516000078
:101660003517000008B5154A9368C3F34203012BF0
:101670001DD0022B18D1124B5968013109D01969BC
:101680009868086093F8361019B9516821F0010183
:10169000516018680A4B48B193F836302BB10021DD
:1016A000084A1368984708BD08BD08BD08BD044A2C
:1016B00010680028F9D01946F2E700BF00C00040CA
:1016C000601C00105C1C001008B5174A9368C3F337
:1016D0004203012B21D0022B1CD1144BD3F8AC10A8
:1016E00001310BD0D3F8B810D3F8B000086093F8EC
:1016F000DE1019B9516821F001015160D3F8A8003A
:101700000A4B48B193F8DE302BB10021084A136828
:10171000984708BD08BD08BD08BD044AD2F8A80016
:101720000028F8D01946F1E700C00940601C0010FD
:101730005C1C001008B5154A9368C3F34203012BE3
:101740001DD0022B18D1124BD96B013109D0996CE5
:10175000186C086093F86E1019B9516821F00101F6
:101760005160986B0A4B48B193F86E302BB1002151
:10177000084A1368984708BD08BD08BD08BD044A5B
:10178000906B0028F9D01946F2E700BF0000014035
:10179000601C00105C1C00102DE9F04F0368884AA3
:1017A0008DB0934209908B4600F3F080854A9342B6
:1017B00000F0F78040F3D780834A934200F09F8087
:1017C00002F5804293420CD1804AD2F8AC1121F448
:1017D0004021C2F8AC11D2F8AC1141F48021C2F81A
:1017E000AC117B494FEA0B1209680891089CB1FBC8
:1017F000F2F102FB114289B20491002A00F0B1809B
:101800006100A2000123029400240B910A9201932B
:101810000F4603920693CDF81CB05E460594DDF8A2
:101820001CA001994FF00008D146CDB2DA46C3465C
:10183000002F79DB0399DDF804E0B1FBF9F46409CA
:101840000134C4F34F04DE44002C66D10124B8F106
:10185000000F67D104FB0EF0029AC000B2FBF0F05B
:101860000130CAEB500002F0D5FFB04206DA504515
:1018700064D00646CDF81480049406950BF1010B54
:101880005FFA8BF84545D144D2D8019CD3460F2C42
:101890004FF000035DD0029A0899019C0A440B990D
:1018A000013402920194039A0F440A9C079922443E
:1018B000594403920791002BB1D0069B059A099CCD
:1018C00042EA03102368C0B2197B049C41F08001F6
:1018D000C4F30722099C1973236804991A712368B9
:1018E0005FFA81FB83F800B0236883F8280023683F
:1018F0001A7B02F07F021A730DB0BDE8F08F334AF5
:10190000D2F8AC1121F44031C2F8AC11D2F8AC11CC
:1019100041F48031C2F8AC1163E7B8F1000F99D0FF
:10192000012C97D8022495E7B7FBF9F42409DDF8D8
:1019300004E00134C4F34F04DE4485E70494019CC1
:10194000D3460F2C0695CDF8148056464FF0010370
:10195000A1D10599069A099C41EA0210C0B22368F8
:10196000B2E71020B0E7A2F5804293427FF439AF8E
:10197000164AD2F8A81121F0C001C2F8A811D2F875
:10198000A81141F04001C2F8A8112AE79B22114892
:10199000114900F0C9FC099C0A4A236893427FF46C
:1019A00009AF0A4AD2F8A81121F44071C2F8A8116F
:1019B000D2F8A81141F48071C2F8A81111E700BF54
:1019C00000C00940000001400080094000C00F40F5
:1019D000D000001070A600008CA60000F8B55D1EB7
:1019E000012D07460C46164604D915481549FB2219
:1019F00000F09AFC053C032C1CD8042E14D8013EA0
:101A0000F6B2032E0DD8104B082253F826301B01D6
:101A1000DBB244EA8504144323433A68DBB2137310
:101A2000F8BD00231A46F4E708480649FE2200F0F4
:101A30007BFCE4E706480349FC2200F075FCDCE788
:101A4000F4A600008CA60000F4A5000040A700004A
:101A50001CA70000436810B40448054CC3EBC30343
:101A600044F8332001605DF8044B70475C1C0010A3
:101A7000601C001000B50268137DDB07FCD54368CD
:101A80000949C3EBC30301EBC30359681078013163
:101A9000C0B207D0596904335B680B60536843F0E8
:101AA000010353605DF804FB601C00100368187D9F
:101AB00000F00100704700BF38B54368184AC3EB17
:101AC000C303DB00D1180446C869013011D01833B4
:101AD0001A445368151D013316D06A696B68126881
:101AE0001A4204D12368187DC0F3801038BD00204D
:101AF00038BD23681B7D9B060CD491F834000F2859
:101B00008CBF0020012038BD064807492C2200F078
:101B10000BFCE2E7002381F83430012038BD00BF20
:101B2000601C0010F4A40000C4A7000038B50446EF
:101B30000D462046FFF7C0FF0028FAD02368EDB21B
:101B40001D706268054BC2EBC20203EBC20393F83F
:101B50003420013283F8342038BD00BF601C0010EF
:101B60002DE9F04F0446454D006883B0A8420E466B
:101B70009046994643D06568002301932A46DFF8D2
:101B800008A1EF00C2EBC202781B4FF0000E0AEB77
:101B9000C0000AEBC20C4FF0FF33C36143607146D3
:101BA000724620468CF835E0FFF7F6FC16B903B014
:101BB000BDE8F08F3249404600F070FC3149834661
:101BC000484600F06BFCB21E012A38D9012EEED136
:101BD000B8F1FF3FEBD02949226807208B451072EE
:101BE00015D1019B9BB11B7C019A254943F0400311
:101BF0004046137403B0BDE8F04F00F01DBC037CF9
:101C0000656803F03F03037462680190B7E77D1BCA
:101C10000AEBC50041460430002200F0E1FB626897
:101C20000125C2EBC2020AEBC20320462A4600216C
:101C300083F8355003B0BDE8F04FFFF7ADBCB9F104
:101C4000FF3F09D00D4A90420CD0781B0AEBC00030
:101C500049461C3000F090FB032EA8D1B8F1FF3F9D
:101C6000B9D1A4E7019B002BEFD01A7C484642F083
:101C700080021A74034900F0DFFBEDE70000014029
:101C8000D0A50000ACA80000601C00102DE9F047B2
:101C90000F46054608466149164600F00DFC6049AE
:101CA0000446304600F008FC0146204600F0E4FB04
:101CB000411C044600F0AB805A4B2860984200F06B
:101CC000838053D9584B984276D003F5804398428D
:101CD00006D1564BD3F8C42042F00072C3F8C4209A
:101CE0004FF0010984F808902B684FF00008C3F802
:101CF000048028464FF41651FFF74EFD42464B46EE
:101D000028460821FFF76AFE3846444900F094FB54
:101D10003046434900F090FB7A1C03D038464146D8
:101D200000F046FE731C03D03046002100F040FE58
:101D30003C4B9C4250D025D93B4B9C4264D003F590
:101D400080439C424BD103236B603949C3EBC303EF
:101D50004FF0FF34284601EBC305224623466C6052
:101D6000EC610021BDE8F047FFF7FABEA3F5804320
:101D70009842B5D12D4BD3F8C42042F00802C3F8E5
:101D8000C420ADE7A3F580439C4228D1284E4FF0F4
:101D9000FF34002169602246234628467460F461BE
:101DA000FFF7DEFE234B012429461C60224808224F
:101DB000BDE8F04703F008B91C4BD3F8C42042F04B
:101DC0008072C3F8C4208BE7184BD3F8C42042F0CC
:101DD0001002C3F8C42083E701236B60B5E76B688A
:101DE0001349C3EBC3034FF0FF3601EBC307324681
:101DF0003346284600217E60FE61FFF7B1FE0F4B9F
:101E00009C42CFD0BDE8F08702236B609DE70C4871
:101E10000C495C2200F088FA2C6061E740A80000C1
:101E200004A60000000001400080094000C00F40EF
:101E3000601C0010581C00101C1E001000C0004048
:101E400030A800008CA6000038B500230360436072
:101E50000A7804462F2A01D0204638BD4A78002A45
:101E6000FAD0481C20604A782F2A14D0B2B18D1CB9
:101E7000194600E052B125602A782B462F2A01F13D
:101E8000010105F10105F5D10133236000F070FE79
:101E90006060204638BD19460346F5E71146F5E770
:101EA0000068704710B50446406828B100F07EFE17
:101EB000012801D1606810BD002010BD406808B540
:101EC00028B100F073FED0F1010038BF002008BD3A
:101ED00010B50446406830B100F068FE18B960687B
:101EE00008B1043810BD002010BD00BF40680030AC
:101EF00018BF0120704700BF10B5044A044640F8DF
:101F00001C2B00F0B9FC204610BD00BFD8A8000073
:101F100010B5054B044640F81C3B00F0ADFC2046D4
:101F200000F08FFE204610BDD8A80000012908B59A
:101F300003460AD0022907D1426D7AB1006C10B174
:101F400003F14401904708BD08BDC26B5AB1806AD5
:101F50000028F8D003F12C01904708BD036C002B3A
:101F6000F1D0984708BD836A002BFAD1EBE700BF98
:101F700038B50E4A0023044680E80C008360C36035
:101F8000036143618361C361036243628362C3632C
:101F9000036443650D462346054A1C3000F034FCBB
:101FA000201D294600F0E8F9204638BDD8A80000D9
:101FB0002D1F000039B100230164436502211C304C
:101FC000012200F061BC0A461C30022100F05CBC1A
:101FD00000F058B8A0F14000FFF7FABF00F056B883
:101FE000A0F14000FFF7FABF38B504461D4600F0E7
:101FF00027F8294604F1400000F0AEF8054B2046D2
:1020000003F1080103F12002543321602264636468
:1020100038BD00BFF0A8000001EB410100EBC1009A
:102020000830011D08B54B6923B1406808B104317F
:10203000984708BD4368002BFBD0984708BD00BFF8
:1020400070B504460B4E0023251D4FF41650E06377
:1020500063602846A360E36023626362A363266033
:10206000FFF714FE284622460349FFF7F3FC2046FB
:1020700070BD00BFE8A80000192000000430FFF781
:1020800015BD00BF0430FFF7F5BC00BF10B504302C
:102090000C46FFF74BFD204610BD00BF00207047E7
:1020A000F8B58E18B1420F4605460FD00C4601E038
:1020B000A64209D02B6828465B6A14F8011B984792
:1020C0000130F5D1E01BF8BDF01BF8BD0020F8BDD4
:1020D000F8B58E18B1420F4605460FD00C4603E006
:1020E00004F8010BA64207D02B6828469B6A984744
:1020F000431CF5D1E01BF8BDF01BF8BD0020F8BD76
:102100000020704700207047002070470020704773
:1021100010B5074B044603F108023C3380E80C007D
:10212000406902F0F5FB204600F042FD204610BD5C
:1021300050A90000A0F10400FFF7EABF10B5044663
:10214000FFF7E6FF204600F07CFD204610BD00BFF3
:10215000A0F10400FFF7F2BF10B584B0044600F010
:1021600057FD0B4B002203F108013C3384E80A00C1
:10217000626101A82246074904F058FA064901A8FD
:1021800002F0AEFD6061FFF773F9204604B010BDA8
:1021900050A90000C0A5000098A9000010B5044691
:1021A000406902F06BFC6069BDE81040FFF764B95C
:1021B0000EB430B582B005AB53F8045B04464069F9
:1021C000019302F05BFC29466069019A03F0DAF89A
:1021D00002B0BDE8304003B0704700BF43684169BA
:1021E00010B51944044600F093F8E36A2BB1A069D6
:1021F00010B104F11C01984710BDA369002BFBD05E
:10220000984710BD10B5044600F088F80023A3617C
:10221000E36210BD38B50D46044600F07FF86561F5
:10222000206900F0EDF941192046BDE8384000F082
:102230006FB800BF10B50446C06800F0E1F96368EC
:10224000C01A10BD38B5002505604560856004469C
:1022500000F0DCF9E06000F0D3F9A5606060204692
:1022600038BD00BF036810B504462BB9C06800F044
:10227000C7F901236060236010BD00BF036810B57B
:10228000846813B1FFF7D6FF0346E01810BD00BF06
:1022900010B50446C06800F0B3F900236060A36085
:1022A00010BD00BF08B503689B68984708BD00BF14
:1022B00010B5044B04460360211D006900F07CF951
:1022C000204610BDC0A9000010B5064B04460360AF
:1022D000211D006900F070F9204600F0B2FC204694
:1022E00010BD00BFC0A90000074A002310B580E858
:1022F0000C008360C360044600F088F90349206144
:1023000000F008F9204610BDC0A90000A522000079
:1023100003460A460069191D00F02AB90146043136
:10232000006900F049B900BF10B5084B04461868B1
:1023300082B00B46C06806490092224602F0DAFCE1
:1023400002B0BDE81040FEF721BE00BF380100100A
:10235000D0A900000FB400B5064A83B004AB1268E0
:1023600053F8041BD0681A46019303F00BF80120C0
:1023700002F068FA3801001038B50D46044600F046
:1023800079F9013509D02046002100F08FF9204667
:102390000321BDE8384000F085B938BD38B50D4699
:1023A000044600F067F901350FD0236801330DD0E2
:1023B0002369626820461A60012100F077F92046FF
:1023C0000221BDE8384000F06DB938BD024803492C
:1023D0002422FFF7A9FFEBE7F4A400000CA50000FE
:1023E00070B50D461646044600F044F9013514D088
:1023F0002368013312D066B9236962681A602046E7
:10240000012100F053F920460221BDE8704000F0A0
:1024100049B9E36862681A60F1E770BD034804498E
:102420002422FFF781FF002EE6D0F2E7F4A400009B
:102430000CA5000000F066B8431C10B5044618D087
:102440000B68581C04D10FE051F80C3F5A1C0BD0FC
:102450009C42F9D12046896800F082FA2046022188
:10246000BDE8104000F0A4BA0248BDE81040FFF7F4
:1024700071BF10BD04AA0000884208B50AD0431CF1
:1024800007D0013106D00448FFF764FF4FF0FF305A
:1024900008BD084608BD00BF18AA00000B685A1CFA
:1024A00004D107E051F80C3F5A1C03D08342F9D104
:1024B000486870471846704708B5431C0CD00B6835
:1024C0005A1C04D109E051F80C3F5A1C05D098421F
:1024D000F9D14868411C00D008BD0348FFF73AFF16
:1024E0004FF0FF30F8E700BF2CAA000030B585B0F0
:1024F00018246D4620462946ABBE0446204605B04A
:1025000030BD00BF024B186800F00100704700BFEB
:10251000F0ED00E038B5036804461B680D469847A7
:1025200063681D6038BD00BF38B503680446DB68CA
:10253000984763685B6883B122681D685368984751
:10254000281A002862680CDC5068116883685360A0
:102550000029F0D040688847EBE723689B689847DC
:1025600038BD236852681B691068984738BD00BFA2
:1025700030B583B072B645680A606C684B608CB148
:102580002368D31A002B05DA0CE01D68551B002DBB
:1025900003DB1C46A368002BF7D1A1608B6062B6F9
:1025A00003B030BD036869601B691046019198470C
:1025B00023460199F2E700BF08B572B643685A682E
:1025C0008A4211D04AB193688B4208D02BB19A68E5
:1025D0008A4205D01346002BF9D162B608BD1346D6
:1025E0008A689A6062B608BD92685A60036822B130
:1025F00010681B69984762B608BD9B689847ECE76E
:1026000008B503685B68984708BD00BF004870477D
:1026100080AA00000148FFF787BF00BF80AA000022
:1026200038B5054600F034FA044600F031FA001BD4
:10263000A842FAD338BD00BF4FF47A7303FB00F011
:10264000FFF7EEBF431C10B5044608D0204600211A
:1026500000F086F904F01F040120A04010BD0348DB
:1026600003491522FFF760FEF0E700BF88AA0000CB
:102670009CAA000038B504464B1C0D4621600FD0C3
:102680000846FFF7DFFF25F01F0505F1180105F1EA
:102690001C0205F114036060A560E16022616361C2
:1026A00038BD00BF006800F083B900BF38B50368CB
:1026B000044601330D4610D045B1012D05D1A36864
:1026C000626819680A431A6038BD38BDA36861683A
:1026D0001A6822EA01021A6038BD034803492C2215
:1026E000FFF722FEE8E700BFF4A400009CAA000068
:1026F0002DE9F04F414B83B05F689E685D6A9C6A2C
:102700000FB3DFF800913E4A9B464FF0010A05E007
:102710000AFA08F3FF1ACBF80C3014D0B7FA87F88E
:10272000C8F11F085FFA88F859F828000028EFD090
:1027300013680121019298470AFA08F3FF1A019AD7
:10274000CBF80C30EAD1D6B1DFF8B890DFF8B0A002
:10275000DFF8A88005E00123BB40F61AC8F80C306A
:102760000DD0B6FA86F7C7F11F07FFB259F8270058
:102770000028F0D0DAF8003002219847EBE7E5B105
:10278000DFF88080DFF878901C4F04E00123B3402D
:10279000ED1AFB6211D0B5FA85F6C6F11F06F6B246
:1027A0000F2EF3D806F1200358F823000028EDD0AF
:1027B000D9F8003001219847E8E7DCB1114FDFF884
:1027C00040800E4E04E00123AB40E41AF36211D0C6
:1027D000B4FA84F5C5F11F05EDB20F2DF3D805F15C
:1027E000200357F823000028EDD0D8F8003002214C
:1027F0009847E8E703B0BDE8F08F00BF8080024053
:10280000481D00104C1D0010F8B51E464B1C044618
:1028100023D0134B21F01F0001F01F05114F21F0B1
:102820005F0199423A6084E8210004D00E48FFF726
:1028300091FD94E821000A4B0C49984218BF2035BD
:102840000B4BA560152043F82560FEF747FC094BAC
:102850004FF400121A600020F8BD0846F8BD00BF12
:1028600000C00920481D001004AB0000F126000044
:102870004C1D001000E100E08268024B002143F88B
:10288000221070474C1D001030B40368314CA34235
:1028900032D0314DAB4212D001293ED0A34220D0DC
:1028A000AB420AD14368012101FA03F3002A41D166
:1028B0002A4A516B21EA0303536330BC70474368D3
:1028C000012404FA03F3254C0129E362EED14368A5
:1028D00001219940214B002A36D01A6B0A431A6312
:1028E000EBE74368012101FA03F3E2B11B4A30BC74
:1028F00051690B43536170474368012404FA03F3A1
:10290000164C0129E360F0D1436801219940134B33
:10291000AAB11A690A431A61CFE7A342F4D0AB42C5
:10292000D5D030BC70470D4A30BC516921EA030351
:1029300053617047094A516B0B435363BDE71A69F2
:1029400022EA01021A61B8E71A6B22EA01021A634D
:10295000B3E700BF00C0092040C0092080800240CA
:1029600038B5431C04460D4617D004F16040A0F56D
:102970001C2000F00F035B0003229A409D400309D6
:102980009B0003F1804303F53033196821EA02020A
:102990001A601A6815431D6038BD034803491522A3
:1029A000FFF7C2FCE1E700BF88AA000034AB0000DB
:1029B00038B5431C04460D462CD004F16040A0F508
:1029C0001C2000F01F04C5F3800202FA04F443093E
:1029D0009B0003F1804303F53033996E21EA040133
:1029E0009966996E0C439C669AB900F00F035B00E0
:1029F00003229A4005FA03F30009800000F18040A9
:102A000000F53030016C21EA02020264026C1343CB
:102A1000036438BD024803492022FFF785FCCCE758
:102A200088AA000034AB0000134A38B513680BBB0A
:102A300012490124D1F8C4501460114A114845F4D8
:102A40000005C1F8C4501367036801F1437101F533
:102A5000F45103319B08A1FB03039B0C013B0221B2
:102A600051600420D36008495460FEF737FB074BE0
:102A700010221A6038BD00BF0C1E001000C00F40AD
:102A800000400940D00000101526000000E100E0E1
:102A900008B5044B1B680BB9FFF7C6FF024B9868DB
:102AA00008BD00BF0C1E001000400940034B986198
:102AB0005A6942F001025A61704700BF0040094064
:102AC000024B5A6922F001025A61704700400940E6
:102AD000014B01221A60704700400940094A83688F
:102AE000026053B1084B1A68824201D106E01A46CF
:102AF00053688342FBD143685360704742681A6051
:102B0000704700BFA0AB0000101E00100C4A836885
:102B100010B50446026053B10A4B1A68904201D1C5
:102B20000AE01A4653689C42FBD163685360204612
:102B300000F087F8204610BD42681A60F7E700BF32
:102B4000A0AB0000101E0010074B10B4002402734D
:102B5000816080E8180019B1044B1A68186042605F
:102B60005DF8044B704700BFA0AB0000101E0010C2
:102B70000D4B70B51C6806460D4614B912E064682A
:102B800084B1A36831462A461846002BF7D003F0DB
:102B9000F2FD0028F3D1A06803F0E5FDA842EED1D4
:102BA000204670BD002070BD101E0010007B7047D5
:102BB00010B5074B044603F108023433226040F895
:102BC000043FFFF78BFF2046FEF7C0FA204610BDFA
:102BD000A8AB0000A0F10400FFF7EABF094B10B555
:102BE00003F1080204463433226040F8043FFFF743
:102BF00075FF2046FEF7AAFA204600F022F820468C
:102C000010BD00BFA8AB0000A0F10400FFF7E6BFB5
:102C1000074B10B50022044640F8043BFFF794FF31
:102C2000044B204603F10802343384E80C0010BD45
:102C300098A50000A8AB000003460846194601F01D
:102C4000EDBD02F0ABB9000030B5214A21F00043E0
:102C5000934287B01BDD1F4A934205DD02460B46B7
:102C600006F02CFF07B030BD02AA00F041FA00F0D8
:102C7000030001281AD002280FD008B3DDE90201B1
:102C800001230093DDE9042301F032FAEAE7002290
:102C9000002300F005FD07B030BDDDE90201DDE9EC
:102CA000042300F0FDFC01F10041DBE70090DDE9C9
:102CB0000423DDE9020101F01BFA01F10041D1E733
:102CC000DDE90201DDE9042300F0EAFCCAE700BF08
:102CD000FB21E93FFFFFEF7FF0B5C1F30A5EAEF2E3
:102CE000FF35132D83B002460B460C464FEAD176D2
:102CF00007462EDC002D48DB3C49294101EA030050
:102D000010432BD049080B4053EA02070CD04FF474
:102D10008023132D24EA010143FA05F444EA010457
:102D20000CBF4FF0004700273149234601EBC60690
:102D3000D6E900453A462046294606F0C1FECDE9CF
:102D40000001DDE9000122462B4606F0B7FE03B084
:102D5000F0BD332D06DDB5F5806F43D01046194622
:102D600003B0F0BDAEF2134E4FF0FF3121FA0EF179
:102D70000142F3D049080142D6D04FF0804320EA07
:102D8000010143FA0EF70F43CEE721F00041014362
:102D9000E4D0C3F3130141EA000CCCF1000141EA95
:102DA0000C0C13495C0C4FEA1C3C0CF4002C640422
:102DB00001EBC6014CEA0403D1E90045204629464F
:102DC00006F07EFECDE90001DDE9000122462B463A
:102DD00006F074FE024621F0004141EAC673104637
:102DE0001946BDE706F06CFEBAE700BFFFFF0F0013
:102DF000E8AB000030B5224A21F00043934287B08F
:102E00001BDD204A934205DD02460B4606F056FEC6
:102E100007B030BD02AA00F06BF900F003000128F2
:102E20001ED0022811D010B3DDE90201DDE9042330
:102E300000F036FC01F10041EAE700230093002294
:102E4000002301F055F907B030BD01230093DDE9FF
:102E50000201DDE9042301F04BF901F10041D7E75C
:102E6000DDE90201DDE9042300F01AFCD0E70124CA
:102E7000DDE90201DDE90423009401F039F9C7E737
:102E8000FB21E93FFFFFEF7F00F056B82DE9F04747
:102E90008AB006460F4600F03DFBDFF898A00446D6
:102EA0009AF900300D4601330FD03046394601F013
:102EB00003FC50B14FF000084FF00009304639468E
:102EC00042464B4607F020FA20B9204629460AB070
:102ED000BDE8F08716499AF8004001220023CDE9A9
:102EE0000467CDE9026701910092089364B9CDE9C6
:102EF0000689684601F00CFC80B1089B9BB9DDE9AE
:102F000006010AB0BDE8F0874046494642464B46B6
:102F100007F0B2F8022CCDE90601EAD101F08CFCF1
:102F200021230360E9E701F087FC089B0360E6E7E3
:102F3000F8AB0000D40000102DE9F84F54421443C0
:102F400023F00049DFF878C149EAD4746445174694
:102F50009E4606460D4641D84442044321F0004BAC
:102F60004BEAD47464458A4638D803F1404404F5EA
:102F70008014144349D09C1704F0020444EAD1742D
:102F80005BEA000132D059EA070138D04C49894543
:102F900048D04B498B4532D0C9EB0B094FEA295930
:102FA000B9F13C0F3ADCBEF1000F64DB3046294634
:102FB00007F062F801F0EEFA01F052F9012C57D057
:102FC000022C48D084B138A3D3E9002306F076FD63
:102FD00037A3D3E9002306F071FD05E0104619463A
:102FE00032462B4606F06CFDBDE8F88F032CCAD89C
:102FF000DFE804F01212020F32483349F4E7BAF165
:10300000000F304825DB3149EEE7BDE8F84F01F00D
:1030100027B92C482E49E7E72946E5E726A1D1E95B
:103020000001CBE7CB452CD0032CB2D801A151F83D
:1030300024F000BF453000004B300000F92F0000A5
:103040001330000000200146CEE700204FF0004181
:10305000CAE72049C8E714A3D3E9002306F02EFDF0
:1030600002460B4612A1D1E9000106F027FDBBE79D
:1030700001F10041B8E719F13C0F97DA0020002177
:103080009CE7032CBBD8DFE804F0020B08050D48D1
:103090001149A9E711481249A6E710481149A3E7C9
:1030A00008481149A0E700BF075C143326A6A13CDD
:1030B000182D4454FB210940182D4454FB21F93F9D
:1030C0000000F07F182D4454FB210940FB21F93FFB
:1030D000FB2109C0FB21F9BFFB21E93FD221337F4E
:1030E0007CD902C07CD90240FB21E9BF000000006E
:1030F0002DE9F04F924C21F00047A7428FB00E46C9
:103100007FDD14468F4A974226DC83A3D3E9002350
:10311000002940F39D8106F0D1FC8B4B80469F42F5
:10312000894600F083807EA3D3E9002306F0C6FC25
:1031300002460B464046C4E90023494606F0BEFC61
:1031400077A3D3E9002306F0B9FC0125C4E9020105
:1031500028460FB0BDE8F08F7C4A974240F3838049
:103160007B4A974258DC3D15A5F21645A7EB055161
:103170008B46824607F0F0F806F0EEFD8046894661
:1031800042464B4650465946CDE9088906F096FC22
:103190000022704B06F046FE8B46824607F0DCF8B4
:1031A00006F0DAFD8046894642464B46504659466F
:1031B000CDE90A8906F082FC0022664B06F032FE59
:1031C00000220023CDE90C0107F094F8002800F05C
:1031D0006781002340464946002207F08BF800280B
:1031E00014BF012302235C480221019000912A466A
:1031F00008A8214600F078FB002EC0F24781054662
:1032000006E0C2E9000100250024C2E902450025CC
:1032100028460FB0BDE8F08F02460B4606F04EFC84
:103220000025C4E90201C4E90001F1E73EA3D3E9A6
:10323000002306F043FC3EA3D3E9002306460F46D5
:1032400006F03CFC02460B463046C4E900233946F2
:1032500006F034FC36A3D3E9002306F02FFC012549
:10326000C4E90201D4E701F095F933A3D3E90023BF
:103270008046894606F0D6FD0022384B06F020FC39
:1032800007F06AF8054606F067FD23A3D3E900239B
:10329000CDE9040106F0C6FD02460B46404649460C
:1032A00006F00CFC1EA3D3E9002382468B46DDE921
:1032B000040106F0B7FD1F2DCDE902015046594625
:1032C00050DC274B6A1E53F82230BB424AD0DDE95E
:1032D000022306F0F3FB02460B4681468846C4E90A
:1032E00000234A4643465046594606F0E7FBDDE9CF
:1032F000022306F0E3FB02460B46002EC4E902233C
:1033000086DA4A4608F1004301F1004184E80C00E6
:10331000E160A0606D427BE700004054FB21F93F73
:103320003163621A61B4D03D0000601A61B4D03DCF
:103330007370032E8A19A33B83C8C96D305FE43FC5
:10334000FB21E93F7BD90240FB21F93FFB213941B9
:10335000FFFFEF7F0000704180AC00000000E03F05
:1033600000AC0000DDE9022306F0A8FB88463F150B
:10337000C8F30A53FB1A102B8146C4E90001B0DDE3
:1033800059A3D3E90023DDE9040106F04BFD804693
:10339000894642464B465046594606F08FFBCDE9DA
:1033A0000601DDE906235046594606F087FB4246F2
:1033B0004B4606F083FB4EA3D3E9002380468946A3
:1033C000DDE9040106F02EFD42464B4606F076FB91
:1033D000CDE90201DDE90223DDE9060106F06EFB1D
:1033E0000B4602468846C1F30A517F1A312F8146A7
:1033F000C4E9002374DD40A3D3E90023DDE904011F
:1034000006F010FD80468946DDE9060142464B463E
:1034100006F054FB82468B46DDE9060152465B46C8
:1034200006F04CFB42464B4606F048FB34A3D3E97A
:10343000002380468946DDE9040106F0F3FC42469C
:103440004B4606F03BFBCDE90201504659463EE7AC
:1034500006F036FB2E4B80469F42894622D02AA397
:10346000D3E9002306F02CFB02460B464046C4E994
:103470000023494606F022FB23A3D3E9002306F0EC
:103480001FFB4FF0FF35C4E90201C1E66268E36843
:1034900002F1004203F1004345426260E360B7E697
:1034A0000323A0E610A3D3E9002306F009FB10A331
:1034B000D3E9002306460F4606F002FB02460B4600
:1034C0003046C4E90023394606F0F8FA08A3D3E9E8
:1034D000002306F0F5FA4FF0FF35C4E9020197E644
:1034E000DDE906ABFDE600BF0000601A61B4D03D27
:1034F0007370032E8A19A33B0000002E8A19A33B88
:10350000C14920259A837B393163621A61B4D03D69
:10351000FB21F93F2DE9F041604E0C46B6460E40C6
:10352000764505460B4600F098800029024676DD78
:103530005FEA215E00F08180AEF2FF3EC3F3130329
:103540001EF0010F43F480135ED100273C46D10FDB
:1035500001EB43034FEA6E0E520016204FF40011A8
:1035600065189D424FEAD2764FEA420202DC5B1BAD
:103570006C180F44013806EB43034FEA5101EFD1B9
:10358000844620264FF000410AE0A34220D0D50F08
:10359000013E4FEA510105EB43034FEA420220D0BE
:1035A0009C420CEB0105F0DA002D05EB010C09DB68
:1035B000A0461B1B954288BF03F1FF334446521BB4
:1035C0000844E4E7BCF1000FF2DB04F10108F0E786
:1035D000954217D8002D05EB010C48DB98460023D7
:1035E000ECE7134315D140087B1003F17F5303F53B
:1035F0000013FA0703EB0E57394648BF40F000406E
:10360000BDE8F0811C46C2E7D10F01EB4303520035
:103610009BE7411C31D000F001031844E3E721F09F
:1036200000460643ECD079BB8E46D30AAEF1150EA8
:103630005205002BF9D0DC0222D400215B00D80215
:1036400001F10101FAD5C1F10100C1F1200422FA12
:1036500004F4234386448A406EE702460B4606F094
:10366000E1FB2A46234606F02BFABDE8F081BCF1C7
:10367000000FAADAA0460023A0E701373046B3E7DF
:10368000202401200021E2E702460B4606F016FA4C
:1036900002460B4606F0F0FCB2E700BF0000F07FE8
:1036A0002DE9F04F21F00047B7F1795F85B00C4666
:1036B00092469B4605466BDA06F04EFE002800F067
:1036C000E7802A4623462846214606F0ABFB74A332
:1036D000D3E900238046894606F0A4FB72A3D3E910
:1036E000002306F0EDF942464B4606F09BFB70A323
:1036F000D3E9002306F0E2F942464B4606F092FB7E
:103700006DA3D3E9002306F0DBF942464B4606F0F1
:1037100089FB6BA3D3E9002306F0D0F942464B4660
:1037200006F080FB68A3D3E9002306F0C9F94246FE
:103730004B4606F077FBCDE90001404649460022A2
:10374000634B06F06FFBDDE9002306460F4640465B
:10375000494606F067FB5246804689465B46284646
:10376000214606F05FFB02460B464046494606F0FE
:10377000A5F902460B463046394606F09FF9024647
:103780000B460020534906F099F905B0BDE8F08FCB
:1037900002460B4606F046FB41A3D3E900238046D0
:1037A000894606F03FFB40A3D3E9002306F088F9E1
:1037B00042464B4606F036FB3DA3D3E9002306F014
:1037C0007DF942464B4606F02DFB3BA3D3E900238F
:1037D00006F076F942464B4606F024FB38A3D3E9BF
:1037E000002306F06BF942464B4606F01BFB36A35E
:1037F000D3E9002306F064F94B46424606F012FB7B
:10380000354BCDE900019F4297DD344B00229F42AA
:1038100038DCA7F5001300202E4916461F4606F097
:103820004DF9CDE90201404649460022284B06F0F9
:10383000F9FA32463B4606F041F9DDE90023064637
:103840000F464046494606F0EDFA52468046894604
:103850005B462846214606F0E5FA02460B464046FE
:10386000494606F02BF902460B463046394606F02B
:1038700025F902460B46DDE9020106F01FF905B005
:10388000BDE8F08F164B0026CDE90223154FCAE79D
:103890001049002005B0BDE8F08F00BFAFF30080F5
:1038A000D43888BEE9FAA8BDC4B1B4BD9EEE213EAD
:1038B000AD529C804F7E923E9015CB19A001FA3EEE
:1038C0007751C1166CC1563F4C5555555555A53FBE
:1038D0000000E03F0000F03F3233D33F0000E93FFB
:1038E0000000E73F0000D23F2DE9F04F9E467E4D9D
:1038F000D41E85FB0465E417C4EBA504ADF51D7D5E
:1039000024EAE4742546A69E0D940C93E343774C79
:1039100003EB430354F8264002EBC3032746099404
:103920000EF1FF3426460394F41904900A9108938B
:10393000A5EB060516D42C44013422AEA79F08E05F
:1039400057F8250006F008FA0135A542E6E902011C
:1039500008D0002DF4DA013500200021A542E6E967
:103960000201F6D1099B002B31DB099A0C9B74A94B
:1039700001EBC20BC3EB4373039A24A9DB0001EBF9
:10398000C20800930DF5E479039B002BC0F29781E8
:103990004446049B0026A3F1080A009B002708EB7D
:1039A0000305FAE9022374E8020106F03BFA024635
:1039B0000B463046394606F083F8AC4206460F46C1
:1039C000EFD1E9E90267D94508F10808DCD1099B84
:1039D00010A99B4603F18043013B9B001A1D0A443A
:1039E0000B440F920E934FEACB039CA91A46069301
:1039F000BBF1000F0B4453E9284528DD0DF5E87AAB
:103A00000AEB02060FAF0022394B2046294606F08A
:103A100009FA06F0A1FC06F09FF90022354B80461A
:103A2000894606F0FFF902460B462046294606F075
:103A300045F806F091FC76E9022347F8040F494661
:103A4000404606F03DF8564504460D46DBD1DDF80C
:103A50002090204629464A4600F05EFE00224FF0A4
:103A60007F5304460D4606F0DDF900F099FD002273
:103A7000214B06F0D7F902460B462046294606F0B0
:103A80001DF804460D4606F067FC804606F064F912
:103A900002460B46204629464C4606F00FF8002CFD
:103AA00006460F4640F3F1800BF1FF3110AB53F89F
:103AB0002130C9F1180043FA00F202FA00F55D1B4B
:103AC00010A8C9F1170340F8215090441D41002D62
:103AD0003FDDBBF1000F08F1010840F384820022B2
:103AE00014460FA912E000BFABAAAA2A88AD0000B5
:103AF0000000703E0000704100002040C3F1807063
:103B00000BB108600124013293450DDD51F8043FEB
:103B1000002CF3D0C3F1FF13013203F57F4393452B
:103B20000B604FF00104F1DC089B002B0EDD012B34
:103B300000F0B380022B09D10BF1FF3210AB53F828
:103B4000223010A9C3F3150341F82230022D00F0F2
:103B50008380304639460022002306F0CBFB002844
:103B600000F0C980099B0BF1FF3A53450DDC10AB07
:103B70000F9803EB8B03002253F8041D834242EAA3
:103B80000102F9D1002A40F01482099B10AA013BDE
:103B900052F82330002B40F024820E9A012352F871
:103BA000041D01330029FAD05B441A460B930BF134
:103BB000010393424DDC0D9A4FF0000803EB02091C
:103BC0000B9A0C9B09F180495B44CBEB020BA79A43
:103BD00009F1FF3902EB890200924FEACB02DB00C8
:103BE000059224AA02EB030B0793069B74AA02EB2F
:103BF000030A009B002653F8040F0027009306F0E9
:103C0000ABF8039BEBE80201002B1BDB079B03EBEC
:103C10000804069B08EB030524AB1C441D44049BCD
:103C2000A3F10809F9E9022374E8020106F0FAF8A1
:103C300002460B463046394605F042FFAC42064686
:103C40000F46EFD1059B08F108089845EAE902679D
:103C5000CFD1DDF82CB0C6E632463B460020BF4946
:103C600005F02CFF06460F46002C3FF472AF089A71
:103C70000020BA4900F050FD02460B463046394656
:103C800005F01CFF06460F4663E711D10BF1FF3329
:103C900010AA52F82350ED1519E70BF1FF3210ABC3
:103CA00053F8223010A9C3F3160341F822304DE730
:103CB0000022AB4B06F03CFB58B9054649E700260D
:103CC0000027E9E90267D94508F108087FF45CAEEE
:103CD0007DE6BBF1000F08F10108C8BF02253FF7E0
:103CE000FEAE32463B4600209C4905F0E7FE022529
:103CF00006460F462DE7089B30465A423946039543
:103D0000CDF8148000F008FD0022964B04460D46C5
:103D100006F00EFB002800F0E1810022924B2046C5
:103D2000294606F07FF806F017FB064606F014F861
:103D300000228C4B06F076F80B46024629462046B8
:103D400005F0BCFE06F008FB089B0BF1010A1833D6
:103D5000089310AB43F82B0043F82A60089A002020
:103D60007E4900F0D9FCBAF1000F04460D46C0F2BE
:103D7000CA800AF101034FEAC30874AF10AA009386
:103D800002EB830907EB080659F8040D05F0E4FF80
:103D900022462B4606F046F8002266E90201724BE5
:103DA0002046294606F03EF8BE4204460D46EBD1B9
:103DB000A8F1080806EB08039B460DF59879CDF8A5
:103DC00018A0DDF824A04FF00008CDF81090BAF14B
:103DD000000FC0F29580B8F1000FC0F29180DFF8BB
:103DE0008C915D4600260027002401E0444510DC4C
:103DF000F9E90223F5E8020106F014F802460B4641
:103E00003046394605F05CFE0134A24506460F46B1
:103E1000ECDA049BABF1080B03EBC803C3E90067C2
:103E2000009B08F101089845D1D1A69BDDF818A0A8
:103E3000DDF81090032B3BD8DFE813F041000400BD
:103E40000400D70000273E46009B09EBC304384618
:103E500074E90223314605F033FE4C4507460E4611
:103E6000F5D1039B002B00F08B80D9E900010A9D5E
:103E7000334606F100463A466E602F6005F01EFE9E
:103E8000BAF1000F03460CDD01261C46F9E90223B6
:103E9000204605F015FE0136B2450346F5DA039AD1
:103EA0000AB101F100411C460D460A9BC3E90245D7
:103EB000059B03F007000DF51D7DBDE8F08F002385
:103EC0001946009A09EBC2091C4679E902232046EB
:103ED00005F0F6FD0AF1FF3ABAF1FF3F0346F3D1D0
:103EE000039A0AB101F100411C460D460A9BC3E941
:103EF0000045059B03F007000DF51D7DBDE8F08F23
:103F00000026002785E7A69B032BD1D8DFE803F026
:103F10004E3030020DF59879039A00231E46002A90
:103F200000F0C8800A9FD9F80800D9F80440D9F8F1
:103F30000C203B61059BD9F8001006F1004604F106
:103F4000004402F10042B86003F007007E617C602B
:103F5000FA6039600DF51D7DBDE8F08F0000F03F7F
:103F60000000E03F000070410000703E90AD000096
:103F7000039B00273E460DF59879002B7FF475AF23
:103F8000D9E9000135463C4633460A9E3A46C6E921
:103F9000004505F093FDBAF1000F03463FF774AFFB
:103FA0001C460D460A9BC3E9024581E700231946DA
:103FB00096E7089A10AB53F82A30183A0395CDF8D3
:103FC00014800892002B7FF4C9AE10AB03EB8A0378
:103FD00053F8041D0AF1FF3A183A0029F8D0089264
:103FE000BCE60123E0E500249EE5BAF1000F93DD75
:103FF0004FEACA0809EB08039B46D3E900677BE94F
:10400000022330463946CDE9002305F059FD044628
:104010000D46DDE9000122462B4605F04FFD024624
:104020000B463046394605F04BFDCB4526462F461C
:10403000CBE90201CBE90045E1D1BAF1010F7FF7ED
:104040006BAF09EB08039A46D3E900670DF59C7B3B
:104050007AE902231046194632463B46CDE9000173
:1040600005F02EFD04460D46DDE9000122462B46F3
:1040700005F024FD32463B4605F022FDDA45264692
:104080002F46CAE90201CAE90045E1D100231E46D4
:1040900008F108044C4450AD184674E90223314637
:1040A00005F00EFDAC4203460E46F5D1039A002AF8
:1040B0007FF438AFD9E90045D9E90289184631467D
:1040C0000A9A059BC2E9040103F00700C2E9004512
:1040D000C2E902890DF51D7DBDE8F08F2046294615
:1040E00006F03AF910ABDA4643F82B0036E600BF8B
:1040F0002DE9F04F21F00046B6F1795F85B00C460E
:1041000090469946054604DA06F026F9002800F0A4
:1041100083802A4623462846214605F083FE2A4608
:10412000234606460F4605F07DFE3FA3D3E9002354
:1041300082468B463046394605F074FE3CA3D3E9EF
:10414000002305F0BBFC32463B4605F06BFE3AA36C
:10415000D3E9002305F0B4FC32463B4605F062FE8D
:1041600037A3D3E9002305F0A9FC32463B4605F00E
:1041700059FE35A3D3E9002305F0A2FC0E9BCDE93F
:1041800000019BB3404649460022334B05F04AFEEE
:10419000DDE90023CDE902015046594605F042FE13
:1041A00002460B46DDE9020105F088FC32463B463B
:1041B00005F038FE42464B4605F080FC24A3D3E9C7
:1041C000002306460F465046594605F02BFE024690
:1041D0000B463046394605F073FC02460B4628462E
:1041E000214605F06BFC05B0BDE8F08FDDE900234A
:1041F0003046394605F016FE15A3D3E9002305F035
:104200005DFC52465B4605F00DFE2A46234605F04E
:1042100057FC05B0BDE8F08F2846214605B0BDE843
:10422000F08F00BFAFF300807CD5CF5A3AD9E53D7F
:10423000EB9C2B8AE6E55A3E7DFEB157E31DC73E57
:10424000D561C119A0012A3FA6F810111111813FB3
:10425000495555555555C53F0000E03F0000000049
:104260002DE9F84FBE4B21F000469E420D468A468E
:1042700004460FDDBB4B9E4200F3B08000F0AB80E4
:10428000B94BBA49BA4CBAF1000FC8BF194620461B
:10429000BDE8F88FB74B9E4200F3BA80A3F1DE73FE
:1042A0009E4240F3A5804FF0FF3B22462B4620461E
:1042B000294605F0B7FD02460B468046894605F0C3
:1042C000B1FD8FA3D3E9002306460F4605F0AAFDF2
:1042D0008DA3D3E9002305F0F3FB32463B4605F0FE
:1042E000A1FD8BA3D3E9002305F0EAFB32463B4650
:1042F00005F098FD88A3D3E9002305F0E1FB3246E1
:104300003B4605F08FFD86A3D3E9002305F0D8FBDB
:1043100032463B4605F086FD83A3D3E9002305F032
:10432000CFFB42464B4605F07DFD81A3D3E9002338
:10433000804689463046394605F074FD7EA3D3E9B0
:10434000002305F0BBFB32463B4605F06BFD7CA32A
:10435000D3E9002305F0B2FB32463B4605F062FD8F
:1043600079A3D3E9002305F0A9FB32463B4605F0CB
:1043700059FD77A3D3E9002305F0A0FB32463B4665
:1043800005F050FDBBF1FF3F02460B4667D04046AB
:10439000494605F095FB22462B4605F043FD764E37
:1043A000764B4FEACB0B5E449B44DBE9002305F0E0
:1043B00085FB22462B4605F081FB02460B46D6E9DB
:1043C000000105F07BFBBAF1000F0446BFF65FAFBA
:1043D00001F100415BE700283FF452AF224620463E
:1043E00029462B4605F06CFB04462046BDE8F88FB5
:1043F00059A3D3E9002305F063FB0022604B05F0CD
:10440000A1FF00283FF44FAF29462046BDE8F88FB2
:1044100000F0C0F85B4B04469E420D462FDCA3F52E
:1044200050239E4254DC02460B4605F049FB002215
:10443000534B05F043FB002206460F462046294613
:104440004FF0804305F03CFB02460B4630463946B0
:1044500005F012FE4FF0000B04460D4625E74046DE
:10446000494605F02DFB22462B4605F0DBFC0246B3
:104470000B462046294605F021FB044607E7424B40
:104480009E421ADC0022414B05F018FB0022064632
:104490000F46204629463D4B05F0C4FC0022384B10
:1044A00005F00EFB02460B463046394605F0E4FDAA
:1044B0004FF0020B04460D46F7E602460B4600207D
:1044C000334905F0D9FD4FF0030B04460D46ECE6E9
:1044D00000222B4B05F0F2FA002206460F4620463A
:1044E0002946274B05F0ECFA02460B463046394682
:1044F00005F0C2FD4FF0010B04460D46D5E600BFA6
:1045000011DA22E33AAD903FEB0D76244B7BA93FC5
:10451000513DD0A0660DB13F6E204CC5CD45B73F93
:10452000FF8300922449C23F0D5555555555D53F3F
:104530002F6C6A2C44B4A2BF9AFDDE522DDEAD3F33
:104540006D9A74AFF2B0B33F711623FEC671BC3FD3
:10455000C4EB98999999C93F9C7500883CE4377ED3
:10456000FFFF0F440000F07FFB21F93FFB21F9BF63
:10457000182D4454FFFFDB3FF8AD0000D8AD00001C
:104580000000F03FFFFFF23FFF7F03400000F83FD5
:104590000000F0BF21F00041704700BF00000000A4
:1045A0002DE9F047C1F30A58A8F2FF36132E0B4647
:1045B00004460D460246894607461DDC002E40DBB8
:1045C000DFF8F08048FA06F808EA010E5EEA020217
:1045D00017D035A3D3E9002305F072FA0022002397
:1045E00005F0B0FE20B1002D40DB29EA08050027C8
:1045F00038462946BDE8F087332E06DDB6F5806FD4
:104600002FD020461946BDE8F087A8F213424FF09C
:10461000FF3A2AFA02FA1AEA000FF2D022A3D3E9EB
:10462000002305F04DFA0022002305F08BFE002840
:10463000DED0002D1FDB4D4627EA0A073846294603
:10464000D8E719A3D3E9002305F03AFA00220023A2
:1046500005F078FE0028CBD0002D1ADB00273D4660
:10466000C6E702460B4605F02BFACCE74FF4801361
:1046700033419944B9E7142E08D0C8F5866808F18B
:104680000308012303FA08F31F19D4D309F1010920
:10469000D1E725F00042064B224318BF1D460027F4
:1046A000A6E700BFAFF300809C7500883CE4377E2E
:1046B0000000F0BFFFFF0F0010B431F0004408D03D
:1046C000114BA1F580129A4208D804205DF8044BE2
:1046D000704718B902205DF8044B704701F1FF41A3
:1046E000094B01F5E0019942EFD9B4F5801F01D2E1
:1046F0000320EBE7054B9C4201D00020E6E7B0FA2F
:1047000080F04009E2E700BFFFFFDF7F0000F07F9D
:104710000020704700000000F8B5C1F30A560446B7
:104720000D460B46174616BB21F00043034332D01B
:104730000022314B05F076FB304A044697420D4685
:104740000B4637DB40F2FE72C1F30A56363E3E445A
:10475000964215DD24A1D1E9000122462B4600F046
:1047600051F821A3D3E9002305F05CFBF8BD40F22A
:10477000FF72964224D040F2FE723E449642E9DC3B
:10478000002E09DD23F0FF4323F4E00343EA06553E
:1047900020462946F8BDF8BD16F1350F15DA4CF262
:1047A00050339F42D6DC12A1D1E9000122462B46AC
:1047B00000F028F80EA3D3E9002305F033FBF8BD81
:1047C00002460B4605F07CF9F8BD23F0FF4323F4C5
:1047D000E003363643EA0655204629460022084BB8
:1047E00005F020FBF8BD00BF9C7500883CE4377ED7
:1047F00059F3F8C21F6EA50100005043B03CFFFF03
:104800000000903C03F0004321F0004243EA020123
:10481000704700BF0028B8BF4042704738B5054612
:1048200004480C46134620B1022029462246AFF325
:10483000008038BD00000000014B1868704700BFC1
:104840003801001008B5074B044613B10021AFF33F
:104850000080054B1868836A03B198472046FCF72F
:10486000EFFD00BF000000007CAE000070B5054603
:104870000C4609B9002070BD18B183690BB900F06E
:1048800083F9204B9C4201D16C6808E01E4B9C428E
:1048900001D1AC6803E01D4B9C4208BFEC68B4F941
:1048A0000C30002BE6D02846214600F039F8236B67
:1048B000064633B12846216A98470028B8BF4FF012
:1048C000FF36A3891B0603D52846216900F090FB1B
:1048D000616B41B104F14403994202D0284600F0D3
:1048E00087FB00236363A16C21B1284600F080FBA5
:1048F0000023A36400F0B2F90023A38100F0AFF914
:10490000304670BD18AE000038AE000058AE000052
:10491000024B01461868FFF7A9BF00BF380100101D
:104920008A892DE9F041054610070C4657D44B689B
:10493000002B02DC0B6C002B18DDE66AB6B102F42A
:104940008052002392B22F682B600AB1626D10E092
:10495000216A28460123B047411C024609D12B6831
:104960003BB11D2B01D0162B46D12F600020BDE896
:10497000F081A3895B0705D56368D21A636B0BB11D
:10498000236CD21AE66A00232846216AB047461CE7
:10499000A38905D12A681AB11D2A01D0162A19D176
:1049A000002262602269D904226004D5421C01D130
:1049B0002B6803B96065616B2F600029D6D004F1C4
:1049C0004403994202D0284600F012FB00206063A5
:1049D000BDE8F08143F04003A381BDE8F0810F6999
:1049E000002FC3D093070E680CBF4B690023C7EBA1
:1049F00006080F608B6012E0A3894FF0FF3043F090
:104A00004003A381BDE8F0812846216A3A46434627
:104A1000A66AB0470028EFDD0744C0EB0808B8F1EC
:104A2000000FF1DCA2E7000038B50B6905460C4623
:104A3000DBB118B183690BB900F0A6F80C4B9C42AE
:104A400001D16C6808E00B4B9C4201D1AC6803E0DB
:104A5000094B9C4208BFEC68B4F90C302BB12846D6
:104A60002146BDE83840FFF75BBF002038BD00BFDE
:104A700018AE000038AE000058AE0000014620B964
:104A8000044B0549186800F0F1B9044B1868FFF7AA
:104A9000CBBF00BF7CAE0000294A000038010010E7
:104AA00038B50C46054618B183690BB900F06CF8AF
:104AB0000E4B9C4201D16C6808E00D4B9C4201D129
:104AC000AC6803E00B4B9C4208BFEC686368013B99
:104AD000002B636005DA28462146BDE8384001F026
:104AE000A3BC23685A1C2260187838BD18AE000099
:104AF00038AE000058AE0000024B01461868FFF7C0
:104B0000CFBF00BF38010010014900F0AFB900BFAE
:104B1000294A000010B50446002303604360836007
:104B200081814366C28103614361836119465C30C0
:104B3000082200F054FA054B24626362044BA3621E
:104B4000044BE362044B236310BD00BFC966000041
:104B5000EF660000276700004B67000070B5682310
:104B60004D1E5D430E4605F1740100F085FA0446C2
:104B700040B1002180E842000C30A06005F16802DD
:104B800000F02DFA204670BD836910B5044633BB92
:104B90008364C3640365124B124A1B6882629842A5
:104BA00004BF0123836100F01FF86060204600F01D
:104BB0001BF8A060204600F017F80421E0600022F6
:104BC0006068FFF7A7FFA06809210122FFF7A2FF95
:104BD000E06812210222FFF79DFF0123A36110BDAF
:104BE0007CAE0000094B0000F8B51B4B07461E6861
:104BF000B36913B93046FFF7C7FF4836B468736826
:104C0000013B04D4B4F90C5075B16834F8E733684B
:104C10002BB938460421FFF7A1FF306008B1366890
:104C2000ECE70C233B60F8BD4FF6FF73E3810123F3
:104C3000A38165662560A560656025616561A561E4
:104C400004F15C002946082200F0C9F96563A563F8
:104C5000A564E5642046F8BD7CAE0000704770474F
:104C6000F7B50F46114601AA054603F053FC064668
:104C700008B9002029E02846FFF7B6FF04460028BF
:104C8000F7D028463946019A4FF4DB7301F02AFB2E
:104C9000002806DA0025FFF7E1FFA581FFF7DFFF17
:104CA000E7E70B4BE08163620A4BA681A3620A4BE4
:104CB0002462E362094B2363F30505D528462146A8
:104CC0000022022300F028F8204603B0F0BD00BF08
:104CD000C9660000EF660000276700004B67000010
:104CE00003460A46024908681946FFF7B9BF00BFE4
:104CF000380100100EB403B5014603AB054853F864
:104D0000042B0068019300F035FA02B05DF804EB63
:104D100003B070473801001000F000B82DE9F843E7
:104D20000C4690461E46054618B183690BB9FFF73D
:104D30002BFF3D4B9C4201D16C6808E03B4B9C42F1
:104D400001D1AC6803E03A4B9C4208BFEC68A389F0
:104D500003F48473B3F5847F03D128462146FFF71B
:104D600063FEE76A0FB91D232BE0012E04D0022E4B
:104D70002BD056B3162324E028462146FFF754FED5
:104D8000A28902F4805292B20AB1606D05E0216AF4
:104D900028463346B847411C14D0A3895A0706D584
:104DA0006368C01A636B4BB1236CC01A06E01B0723
:104DB00004D5236813B122699B1A18448044002645
:104DC00003E02B604FF0FF392BE023691BB9284625
:104DD000214600F08FF828462146FFF725FE814640
:104DE0000028EFD12846216A42463346B8470130B1
:104DF000E8D0616B41B104F14403994202D02846E6
:104E000000F0F6F800236363236900212360A3897F
:104E1000616023F40263A38104F15C00082200F0C6
:104E2000DEF84846BDE8F88318AE000038AE000052
:104E300058AE00002DE9F041884600F148040026F4
:104E40008CB1A5686768013F0BD4AB89012B06D9EB
:104E5000B5F90E30013302D02846C0470643683505
:104E6000F1E72468ECE73046BDE8F0812DE9F8432E
:104E70008046894600F14804002694B1A568676819
:104E8000013F0CD4AB89012B07D9B5F90E300133A2
:104E900003D040462946C84706436835F0E72468F2
:104EA000EBE73046BDE8F8830E4B70B51E460E4C5E
:104EB0000025E41AA410A54204D056F825309847DE
:104EC0000135F8E705F0E0FA084B094C1E46E41AF4
:104ED000A4100025A54204D056F825309847013586
:104EE000F8E770BD7801001078010010780100101B
:104EF00084010010F0B58B8991B09D0706460C46E1
:104F000025D4B1F90E10002908DAA389002513F081
:104F1000800F14BF40274FF480670DE001AA03F013
:104F200031FB0028F1DB029D4FF4806705F47045EA
:104F3000A5F500514D424D413046394600F09CF8F0
:104F400060B9A3899A051DD443F00203A38104F13B
:104F50004703236023610123636113E00A4BB362BB
:104F6000A389206043F08003A381206167614DB174
:104F70003046B4F90E1003F023FE18B1A38943F0B4
:104F80000103A38111B0F0BD094B0000024B0146A3
:104F9000186800F071B800BF38010010024B0146DC
:104FA000186800F025B800BF3801001010B5C9B26C
:104FB00002449042034605D01C7801308C42F8D15F
:104FC000184610BD002010BD10B5431E0A44914282
:104FD00004D011F8014B03F8014FF8E710BD034668
:104FE0000244934202D003F8011BFAE77047000025
:104FF00030B500293CD051F8042C0B1F1D49002A64
:10500000B8BF9B180A680C4612B95A600B6030BDD5
:1050100093420DD219685818904201BF5A5852183D
:105020001A60426823605A6030BD994203D80A462C
:1050300051680029F9D1146815199D420AD11B68DD
:105040002344D0188842136012D1086803441360C7
:105050004B680CE002D90C23036030BD1C681819A2
:10506000884201BF08684968001918605960536098
:1050700030BD00BF181E001070B5CC1C24F0030416
:1050800008340C2C38BF0C24002C064603DA0C2301
:105090003360002070BD8C42F9D3204A136810465B
:1050A0001946A1B10A68121B0ED40B2A03D90A6053
:1050B0008B188C501FE08B420BBF5A684A68026005
:1050C0005A6018BF0B4616E00B464968E9E7144DD5
:1050D0002B681BB9304601F0D3F9286030462146D1
:1050E00001F0CEF9421C0346D1D0C51C25F00305C2
:1050F00085420AD11C6003F10B001A1D20F0070045
:10510000821A0AD05142995070BD3046E91A01F016
:10511000B7F90130BBD02B46ECE770BD181E00106C
:10512000141E0010936810B5013B002B936009DA40
:105130009469A34202DBCBB20A2B03D1BDE8104035
:1051400002F0C0BA1368581C10601970C8B210BDC4
:10515000F8B506460F461446D518AC4208D030467E
:1051600014F8011B3A46FFF7DDFF431CF5D100E0C0
:105170000020F8BD2DE9F0439DB00D469046039305
:10518000064618B183690BB9FFF7FEFC754B9D42CB
:1051900001D1756808E0744B9D4201D1B56803E008
:1051A000724B9D4208BFF568AB891C070AD52B6975
:1051B00043B10023099320238DF8293030238DF843
:1051C0002A3041E03046294602F0E2FA0028F0D0C9
:1051D0004FF0FF30C2E0039A0134111D12680391B1
:1051E000002ABBBF524243F0020307920792B8BFA6
:1051F000049323782E2B7BD0DFF8808121784046E2
:105200000322FFF7D3FE38B1049AC8EB0000402315
:10521000834013430493013421785548062204F156
:1052200001088DF82810FFF7C1FE002800F08580E6
:10523000504B002B78D1039B073323F0070308332F
:105240000393099B3B44099343461C4613F8012BE7
:105250001AB9B4EB08090ED002E0252AF5D1F8E717
:105260003046294642464B46FFF772FF013070D068
:10527000099B4B4409932378002B6AD000234FF0FD
:10528000FF3204930793059206938DF853301A93D7
:1052900004F101084446DFF8E890217848460522E9
:1052A000FFF784FE08F10108049B30B1C9EB000050
:1052B0000122824013430493ECE7D80644BF202226
:1052C0008DF85320190744BF2B228DF853202278E4
:1052D0002A2A80D0234607991C4622780133303A87
:1052E000092A03D80A2000FB0121F5E7079180E78E
:1052F00063782A2B0AD1039B02341A1D1B68039280
:10530000002BB8BF4FF0FF33059375E7611C0022F7
:105310000C4623780131303B092B03D80A2000FBCF
:105320000232F5E7059267E703AB0093304604A924
:105330002A46114B00F0C4F807E003AB0093304657
:1053400004A92A460C4B00F077FB421C07467FF469
:1053500078AFAB895B063FF53BAF09981DB0BDE860
:10536000F08300BF18AE000038AE000058AE000059
:105370008AAE0000C15400005151000086AE00000A
:1053800080AE000030B505460C461346034A294658
:1053900010682246BDE83040FFF7ECBE380100102F
:1053A0002DE9F0471E4688B0149F002BB8BF06F1C8
:1053B0000043129927F02007B6BF1E4600232D2375
:1053C000462F1446109DDDF84CA00B7003D0452FDE
:1053D00003D1013501E0032300E002238DE8280416
:1053E00006AB039307AB04932246334602F0D8FA88
:1053F000472F804602D1119BDB0726D5462F08EBAD
:10540000050911D198F80030302B0AD120463146D9
:105410000022002304F06EFF18B9C5F10105CAF897
:105420000050DAF80030994420463146002200232B
:1054300004F060FF08B1CDF81C90079B4B4504D2E7
:105440005A1C079230221A70F7E74046079B159ABC
:10545000C8EB0303136008B0BDE8F087034673B5DB
:105460000029B8BF494203F8022BB4BF2D222B22DA
:10547000092942701ADD0DF1070426460A2291FB24
:10548000F2F502FB1511092D01F1300104F8011D9F
:105490002946F3DC3031651E04F8011CB5421A467A
:1054A0000AD215F8012B03F8012BF7E71A4630242E
:1054B000214402F8024B5970101A02B070BD00006E
:1054C0002DE9F04F91B08B4615461E461A9F0446B3
:1054D00003F086FBD0F800A0504601F044F9002309
:1054E0000E933B680990073323F0070303F108028A
:1054F0009BF818803A60D3E90023CBE91223DBE95B
:105500001201FFF7D9F80128DBE9120119D10022B5
:10551000002304F0F9FE10B12D238BF84330A04B8B
:10552000A04FB8F1470F88BF1F460323CBF81030B8
:10553000DBF8003023F00403CBF800304FF0000913
:10554000A1E0FFF7B9F8DBF8003048B9964A974F69
:10555000B8F1470F88BF17460322CBF81020E9E7C0
:10556000DBF80420DBE91201571CCDE90A0101D167
:10557000062209E0B8F1670F02D0B8F1470F05D154
:10558000002A40F0C7810122CBF80420DBF8042078
:1055900043F480638DE80C00CBF800300DF1330349
:1055A00002930DAB03930EAB059300230693CDF846
:1055B0001080DDE90A232046FFF7F2FE08F0DF0342
:1055C000472B07460AD10D9BD81C03DBDBF80420D0
:1055D000934237DDA8F102085FFA88F8B8F1650F49
:1055E0000D9915D8013942460BF150000D91FFF786
:1055F00035FF0E9A81468318012ACBF8103003DC60
:10560000DBF80020D10738D50133CBF8103034E077
:10561000B8F1660F18D10029DBF8043009DDCBF8AA
:1056200010101BB9DBF80020D20721D501330B4441
:105630001CE01BB9DBF80020D00701D5023315E0D0
:10564000012313E04FF067080D9B0E9A934207DB8E
:10565000DBF80020CBF81030D10709D5013305E085
:10566000002BD4BFC3F1020301231344CBF8103045
:105670000D9B4FF00009CBF858309DF8333013B133
:105680002D238BF843300096204659460FAA2B460F
:1056900000F05CF9013002D14FF0FF3052E1DBF84D
:1056A00000305A0505D4204629463A46DBF810302A
:1056B00008E1B8F1650F40F2D080DBE91201002269
:1056C000002304F017FE50B320462946384A012330
:1056D000B0470130E0D00E9B0D9A9A4209DBDBF80F
:1056E0000030D80705D4DBF800309F0700F11081A7
:1056F00007E1204629465246099BB0470130CBD0EE
:1057000000270E9B013B9F42EDDA204629460BF114
:105710001A020123B0470130BED00137F1E70D9BDB
:10572000002B29DC20462946214A0123B0470130BD
:10573000B2D00D9B2BB90E9B1BB9DBF80030D907FB
:10574000D1D5204629465246099BB0470130A3D007
:105750004FF000080D9B20465B429845294608DA29
:105760000BF11A020123B047013095D008F101086E
:10577000F0E73A460E9BA5E0DBF858200E9B9A42D4
:10578000A8BF1A46002A914602DC4FF000081CE030
:10579000204629463A464B46B0470130F5D17BE7D3
:1057A00095AE000091AE00009DAE000099AE0000E5
:1057B000EAAE0000204629460BF11A020123B04749
:1057C00001303FF469AF08F10108DBF85830B9F156
:1057D000000FB4BF1A46C9EB03029045EADB07EBA2
:1057E00003080D9A0E9B9A4210DBDBF80030DA07B3
:1057F0000CD40E9A1744C8EB07030D9FD21B93429B
:10580000A8BF1346002B1F4608DC0EE020462946A1
:105810005246099BB0470130EBD13DE7204629466F
:105820004246B04701303FF437AF4FF000080AE07E
:10583000204629460BF11A020123B04701303FF4FC
:105840002BAF08F101080D9A0E9B002FA3EB02036A
:10585000A8BFDB1B9845EBDB45E70E9A012A01DC6C
:10586000DB0736D5204629463A460123B0470130AA
:105870003FF412AF204629465246099BB0470130FB
:105880003FF40AAFDBE912010022002304F032FDED
:10589000E8B90E9B204629467A1C013B1DE02046B4
:1058A00029460BF11A020123B04701303FF4F4AE50
:1058B00001370E9B013B9F42F1DB204629464B46B8
:1058C0000BF15002B04701307FF40DAFE4E6002742
:1058D000EFE7204629463A460123B0470130ECD194
:1058E000DAE6204629460BF119020123B0470130C0
:1058F0003FF4D2AE0137DBF80C300F9A9B1A9F426F
:10590000EFDBDBF80C000F9B9842B8BF184619E09C
:105910000027F0E743F480638DE80C00CBF80030FB
:105920000DF1330302930DAB03930EAB05930023EC
:105930000693CDF810802046DDE90A23FFF730FDFD
:10594000074640E611B0BDE8F08F00BF2DE9F843EF
:1059500091461F468A680B6906469342B8BF1346B4
:10596000C9F8003091F843200C46DDF8208012B1D0
:105970000133C9F800302368990642BFD9F80030D6
:105980000233C9F80030256815F006051CD094F8DC
:1059900043302268003318BF012392061FD5E11857
:1059A000302081F843005A1C94F8451022440233F9
:1059B00082F8431013E03046394604F119020123FE
:1059C000C047013007D00135E368D9F800209B1AA1
:1059D0009D42F0DBDBE74FF0FF30BDE8F883304657
:1059E000394604F14302C0470130F4D02268D9F8A7
:1059F0000050E36802F00602042A08BF5D1B22691A
:105A0000A3680CBF25EAE57500259342C4BF9B1A25
:105A1000ED184FF00009A9450ADA3046394604F17D
:105A20001A020123C0470130D5D009F10109F2E77C
:105A30000020BDE8F88300002DE9FF410C46174621
:105A4000227E98466E2A06460A9B01F1430100F029
:105A5000B08012D8632A23D00AD8002A00F0BD8073
:105A6000582A40F0CC8084F84520DFF804E257E063
:105A7000642A1ED0692A1CD0C1E0732A00F0B180CC
:105A800009D86F2A2ED0702A40F0B980226842F0DF
:105A9000200222603FE0752A24D0782A3BD0AEE075
:105AA0001A6804F14205111D1960136884F8423028
:105AB000A9E020681A6810F0800F02D0101D18604D
:105AC00008E010F0400F02F10400186002D0B2F9B3
:105AD000003000E01368002B3EDA2D225B4284F890
